:100000000C945C000C9479000C9479000C947900A9
:100010000C9479000C9479000C9479000C9479007C
:100020000C9479000C9479000C9479000C9479006C
:100030000C9479000C9479000C9479000C9479005C
:100040000C94EC000C9479000C9479000C947900D9
:100050000C9479000C9479000C9479000C9479003C
:100060000C9479000C947900000000002400270013
:100070002A0000000000250028002B0004040404CE
:100080000404040402020202020203030303030342
:10009000010204081020408001020408102001021F
:1000A00004081020000000080002010000030407FB
:1000B000000000000000000011241FBECFEFD8E0B8
:1000C000DEBFCDBF11E0A0E0B1E0E0EFF3E002C0A1
:1000D00005900D92A435B107D9F721E0A4E5B1E070
:1000E00001C01D92AD35B207E1F70E9436010C94B4
:1000F000F6010C94000090E0FC01EC55FF4F2491B8
:10010000FC01E057FF4F3491FC01E458FF4FE491AC
:10011000EE23C9F0222339F0233001F1A8F4213075
:1001200019F1223029F1F0E0EE0FFF1FEE58FF4FDA
:10013000A591B4918FB7F894EC91611126C03095D8
:100140003E233C938FBF08952730A9F02830C9F093
:10015000243049F7809180008F7D03C0809180001A
:100160008F7780938000DFCF84B58F7784BDDBCF1E
:1001700084B58F7DFBCF8091B0008F778093B000E6
:10018000D2CF8091B0008F7DF9CF3E2BDACF3FB731
:10019000F8948091590190915A01A0915B01B0911E
:1001A0005C0126B5A89B05C02F3F19F00196A11D43
:1001B000B11D3FBFBA2FA92F982F8827BC01CD01B1
:1001C000620F711D811D911D42E0660F771F881F10
:1001D000991F4A95D1F708951F920F920FB60F926B
:1001E00011242F933F938F939F93AF93BF9380914D
:1001F000550190915601A0915701B091580130914D
:10020000540123E0230F2D3758F50196A11DB11D90
:10021000209354018093550190935601A093570168
:10022000B09358018091590190915A01A0915B01BE
:10023000B0915C010196A11DB11D8093590190936D
:100240005A01A0935B01B0935C01BF91AF919F9164
:100250008F913F912F910F900FBE0F901F90189587
:1002600026E8230F0296A11DB11DD2CF789484B544
:10027000826084BD84B5816084BD85B5826085BDA2
:1002800085B5816085BD80916E00816080936E0030
:100290001092810080918100826080938100809122
:1002A00081008160809381008091800081608093D3
:1002B00080008091B10084608093B1008091B00093
:1002C00081608093B00080917A00846080937A008E
:1002D00080917A00826080937A0080917A008160B8
:1002E00080937A0080917A00806880937A001092DF
:1002F000C1000EE011E0C0E0D1E0899199919C012C
:100300003327F901E057FF4F449124583F4FF9013B
:100310002491222399F030E0220F331FF901E8598C
:10032000FF4FA591B491F901EE58FF4F25913491FB
:100330002FB7F894EC91E42BEC932FBF60E00E9470
:100340007B000C171D07C9F600E010E0CEE0D1E0FD
:1003500090E0C92E91E0D92EF12CE12CF60180819C
:10036000F2E0CF0ED11C61E0FE01EE0DFF1D908189
:10037000911101C060E00E947B002FEFE21AF20AA7
:1003800087E0E816F10451F70E94C7004B015C01B9
:1003900088EEC82E83E0D82EE12CF12C0E94C700F5
:1003A000681979098A099B09683E7340810591059E
:1003B000A8F391E0C91AD108E108F108E8EE8E0E21
:1003C000E3E09E1EA11CB11CC114D104E104F104A0
:1003D00029F7279621E0C435D20709F0B9CF0115D6
:1003E000110509F4B3CF0E940000B0CFF894FFCFFD
:1003F00002000300040005000600070008000101D8
:1004000001010101000001010000000001010001E3
:1004100001000101010101000001000101000001D2
:1004200001010001010001010100010101010101BF
:1004300001010000000001010101010101010101B0
:0404400001000101B5
:00000001FF
